:04000000100012B723
:040001000FC0031316
:0400020000628023F5
:04000300006280A374
:0400040006000313DC
:04000500006280A372
:0400060000628123F0
:040007000DA0031332
:0400080000628123EE
:04000900006281A36D
:04000A000F200313AD
:04000B00006281A36B
:04000C0000628223E9
:04000D000660031373
:04000E0000628223E7
:04000F00006282A366
:040010000B6003136B
:04001100006282A364
:0400120000628323E2
:040013000BE00313E8
:0400140000628323E0
:04001500006283A35F
:040016000E000313C2
:04001700006283A35D
:0400180000628423DB
:040019000FE00313DE
:04001A0000628423D9
:04001B00006284A358
:04001C000F6003135B
:04001D00006284A356
:04001E0000628523D4
:04001F00040003379F
:0400200000108093B9
:040021000002C40312
:040022000083002334
:040023000083002333
:04002400008308232A
:040025000083082329
:04002600028300232E
:04002700028300232D
:040028000283082324
:040029000283082323
:00000001FF